:100000000C948F0A0C94AD0A0C94AD0A0C94AD0AB2
:100010000C94AD0A0C94AD0A0C94AD0A0C94AD0A84
:100020000C94AD0A0C94AD0A0C94AD0A0C94AD0A74
:100030000C94AD0A0C9495100C94AD0A0C94AD0A76
:100040000C9438100C94AD0A0C94AD0A0C94AD0AC3
:100050000C94AD0A0C94AD0A0C94AD0A0C94AD0A44
:100060000C94D70F0C94AD0A0C94AD0A0C94AD0A05
:100070000C94751B0C94471B0C94AD0A0C94AD0AA0
:100080000C94C2100C94AD0A0C94AD0A7D001000C3
:10009000640010000100100070001000010010004A
:1000A0006400100001001000850010000100100025
:1000B000A80010008500100001001000C700040017
:1000C000010010006400100001001000700010001A
:1000D00001001000640010000100100085001000F5
:1000E00001001000A80010008500100001001000A1
:1000F000C70004000100100064001000010010009F
:100100005900100001001000540010000100100000
:10011000590010005400100001001000540010009D
:1001200001001000640010005900100001001000D0
:100130006400100059001000010010005900100068
:100140000100100070001000640010000100100099
:100150007000100064001000010010006400100026
:100160000100100070001000640004000100100085
:100170006400100001001000700010000100100069
:100180006400100001001000850010000100100044
:10019000A80010008500100001001000C700040036
:1001A0000100100064001000010010007000100039
:1001B0000100100064001000010010008500100014
:1001C00001001000A80010008500100001001000C0
:1001D000C7000400010010006400100001001000BE
:1001E0005900100001001000540010000100100020
:1001F00059001000540010000100100054001000BD
:1002000001001000640010005900100001001000EF
:100210006400100059001000010010005900100087
:1002200001001000700010006400100001001000B8
:100230007000100064001000010010006400100045
:1002400001001000590010005400040001001000CB
:1002500043001000010010004B00100001001000CE
:1002600043001000010010005400100001001000B5
:100270007000100054001000010010008500040000
:100280000100100043001000010010004B0010009E
:100290000100100043001000010010005400100085
:1002A0000100100070001000540010000100100048
:1002B0008500040001001000430010000100100040
:1002C0003B00100001001000380010000100100079
:1002D0003B00100038001000010010003800100032
:1002E00001001000430010003B001000010010004E
:1002F000430010003B001000010010003B00100004
:10030000010010004B00100043001000010010001D
:100310004B001000430010000100100043001000CB
:10032000010010004B001000430004000100100009
:1003300043001000010010004B00100001001000ED
:1003400043001000010010005400100001001000D4
:10035000700010005400100001001000850004001F
:100360000100100043001000010010004B001000BD
:1003700001001000430010000100100054001000A4
:100380000100100070001000540010000100100067
:10039000850004000100100043001000010010005F
:1003A0003B00100001001000380010000100100098
:1003B0003B00100038001000010010003800100051
:1003C00001001000430010003B001000010010006D
:1003D000430010003B001000010010003B00100023
:1003E000010010004B00100043001000010010003D
:1003F0004B001000590010000100100059001000BF
:100400004B00100001001000430004000100100028
:1004100064001000010010007000100001001000C6
:1004200064001000010010008500100001001000A1
:10043000A80010008500100001001000C700040093
:100440000100100064001000010010007000100096
:100450000100100064001000010010008500100071
:1004600001001000A800100085001000010010001D
:10047000C70004000100100064001000010010001B
:10048000590010000100100054001000010010007D
:10049000590010005400100001001000540010001A
:1004A000010010006400100059001000010010004D
:1004B00064001000590010000100100059001000E5
:1004C0000100100070001000640010000100100016
:1004D00070001000640010000100100064001000A3
:1004E0000100100070001000640004000100100002
:1004F00064001000010010007000100001001000E6
:1005000064001000010010008500100001001000C0
:10051000A80010008500100001001000C7000400B2
:1005200001001000640010000100100070001000B5
:100530000100100064001000010010008500100090
:1005400001001000A800100085001000010010003C
:10055000C70004000100100064001000010010003A
:10056000590010000100100054001000010010009C
:100570005900100054001000010010005400100039
:10058000010010006400100059001000010010006C
:100590006400100059001000010010005900100004
:1005A0000100100070001000640010000100100035
:1005B00070001000640010000100100064001000C2
:1005C0000100100059001000540004000100100048
:1005D00043001000010010004B001000010010004B
:1005E0004300100001001000540010000100100032
:1005F000700010005400100001001000850004007D
:100600000100100043001000010010004B0010001A
:100610000100100043001000010010005400100001
:1006200001001000700010005400100001001000C4
:1006300085000400010010004300100001001000BC
:100640003B001000010010003800100001001000F5
:100650003B001000380010000100100038001000AE
:1006600001001000430010003B00100001001000CA
:10067000430010003B001000010010003B00100080
:10068000010010004B00100043001000010010009A
:100690004B00100043001000010010004300100048
:1006A000010010004B001000430004000100100086
:1006B00043001000010010004B001000010010006A
:1006C0004300100001001000540010000100100051
:1006D000700010005400100001001000850004009C
:1006E0000100100043001000010010004B0010003A
:1006F0000100100043001000010010005400100021
:1007000001001000700010005400100001001000E3
:1007100085000400010010004300100001001000DB
:100720003B00100001001000380010000100100014
:100730003B001000380010000100100038001000CD
:1007400001001000430010003B00100001001000E9
:10075000430010003B001000010010003B0010009F
:10076000010010004B0010004300100001001000B9
:100770004B0010005900100001001000590010003B
:100780004B001000010010004300000078000C0036
:100790002B011A0001000C00E000180001000C0001
:1007A000B200180001000C00E00018000100060073
:1007B000C7000C0001001800A8003000010018005C
:1007C000B200300001001800C7003000010018001E
:1007D000E000300001000C00ED00180001000C00EA
:1007E000C700180001000C002B01180001000C00CC
:1007F000ED00180001000600E0000C0001000600FA
:10080000B2000C0001000C002B01180001000C00CC
:10081000E000180001000C00B200180001000C00FC
:10082000E000180001000600C7000C0001001800DD
:10083000A800300001001800B200300001001800CC
:10084000C700300001001800E000300001000C007B
:10085000ED00180001000C00C700180001000C009A
:100860002B01180001000C00ED001800010003002E
:10087000E000060001000C00B200180001001800A2
:10088000B200300001001800B200300001000C007E
:10089000B200180001000C00B200180001000600B0
:1008A000A8000C0001000C00A800180001001800AE
:1008B000A800300001001800B200300001000C0058
:1008C000C700180001000C00C700180001000C0050
:1008D000C700180001000C00E000180001000C0027
:1008E000ED00180001000C00E000180001000600F7
:1008F000C7000C0001000C00B20018000100180035
:10090000B200300001001800B200300001000C00FD
:10091000B200180001000C00B2001800010006002F
:10092000A8000C0001000C00A8001800010018002D
:10093000A800300001001800B200300001000C00D7
:10094000C700180001000C00C700180001000C00CF
:10095000E000180001000C00ED0018000100030089
:10096000E000000078000500ED002800010005000F
:10097000E000280001000700D3001100010007007B
:10098000C7001300B200800001000A00ED00130050
:1009900001001100C700060001000500B2006D0053
:1009A00001001800ED00280001000900C700280020
:1009B00001001700B200990001001100C7000B00F0
:1009C0000100020095000E0001000900B200800045
:1009D000010010009500800001000900BC00260005
:1009E00001000F00B200070001000500950018008B
:1009F00001001400BC003B0001000900B2004000EF
:100A00000100130095006D0001000F00850011002A
:100A1000010004007E0040008500800101001400F8
:100A20008D0080010100070095000C000100090005
:100A30007700090001000A007700090001000800A2
:100A400077000A000100090077000A000100080091
:100A5000770013007E00600001000800850033006D
:100A6000010003008D00450001000800B2000D00E8
:100A7000010008007E003B00010010007700080024
:100A80007E00800001001000770055000100090081
:100A90009500280001000D008500080001000E00EF
:100AA0009500040001000500ED002800010005008C
:100AB000E000280001000700D3001100010007003A
:100AC000C7001400B2006D0001000A00ED00130021
:100AD00001001100C700060001000500B2008000FF
:100AE00001001700ED00280001000900C7002600E2
:100AF00001001800B200800001001100C7000C00C6
:100B00000100020095000E0001000900B200800003
:100B1000010010009500990001000900BC002800A8
:100B200001000E00B200070001000600950017004A
:100B300001001400BC003B0001000900B2003B00B2
:100B4000010013009500600001000F0085001000F7
:100B5000010004007E004C0085000001010014002B
:100B60008D00070095000C000100090077000900C6
:100B700001000900770009000100080077000A0061
:100B80000100090077000A00010007007700130048
:100B90007E005500010008008500360001000300BA
:100BA0008D00400001000800B2000D0001000700A8
:100BB0007E003B0001001000770008007E008000EE
:100BC0000100100077004C0001000900950028008A
:100BD00001000D008500080001000E0095000100D5
:100BE0000100000078000800ED000800FB0008008C
:100BF000ED000800FB000800ED0008003C010800C3
:100C00000A0108002B01040063010800010008002C
:100C100055020800DA010800630104003C010800E5
:100C200001000800DA010800780108003C01040016
:100C30002B01080001000800DA010800ED0008009F
:100C4000FB000800ED000800FB000800ED000800B4
:100C50003C0108000A0108002B01040063010800A0
:100C60000100080055020800DA01080063010400D1
:100C70003C01080001000800DA0108002B0108000F
:100C80003C01040063010000780008000A0108002C
:100C9000ED000800D3000800C7000800B2000800FB
:100CA00001000800D3000800010008000A01080044
:100CB000ED000800D3000800ED0008000A0108005C
:100CC000010008000A010800010008000A010800EC
:100CD000ED000800D3000800C7000800B2000800BB
:100CE00001000800D300080001000800B20008005D
:100CF000C7000800D3000800ED0008000A01080042
:100D0000010008000A010800010008000A010800AB
:100D1000ED000800D3000800C7000800B20008007A
:100D200001000800D3000800010008000A010800C3
:100D3000ED000800D3000800ED0008000A010800DB
:100D4000010008000A010800010008000A0108006B
:100D5000ED000800D3000800C7000800B20008003A
:100D600001000800D300080001000800B2000800DC
:100D7000C7000800D3000800ED0008000A010200C7
:100D800001000800D30008000A0108006301080000
:100D90000A010800D30008000A01080063010800E6
:100DA0000A010800C7000800C7000800D3000800B7
:100DB000D3000800ED00020001000800C700080091
:100DC000C7000800D3000800D3000800ED000800A9
:100DD000ED0008009E0008009E000800B200080018
:100DE000C7000800D3000800ED0008000A01020057
:100DF00001000800D30008000A0108006301080090
:100E00000A010800D30008000A0108006301080075
:100E10000A010800C7000800C7000800D300080046
:100E2000D3000800ED00020001000800C700080020
:100E3000C7000800D3000800D3000800ED00080038
:100E4000ED0008009E0008009E000800B2000800A7
:100E5000C7000800D3000800ED0008000A010200E6
:100E60000100080085000800850010009E001000A9
:100E7000B20008000100080085000800850010008D
:100E80009E001000B200080001000800D300080016
:100E9000C7001000BC001000B200080001000800EC
:100EA000D3000800D3001000ED0010000A01080074
:100EB0000100080085000800850010009E00100059
:100EC000B20008000100080085000800850010003D
:100ED0009E001000B200080001000800D3000800C6
:100EE000C7001000BC001000B2000800010008009C
:100EF000D3000800D3001000ED0010000A01080024
:100F000001000800D30008000A010800630108007E
:100F10000A010800D30008000A0108006301080064
:100F20000A010800C7000800C7000800D300080035
:100F3000D3000800ED00020001000800C70008000F
:100F4000C7000800D3000800D3000800ED00080027
:100F5000ED0008009E0008009E000800B200080096
:100F6000C7000800D3000800ED0001000A010000DE
:100F7000A00020002C0120002901200026012000D3
:100F800023012000200120001D0120001A01200063
:100F90001701200014012000110120000E01200083
:100FA0000B012000080120000501200002012000A3
:100FB000FF002000FC002000F9002000F6002000C7
:100FC000F3002000F0002000ED002000EA002000E7
:100FD000E7002000E4002000E1002000DE00200007
:100FE000DB002000D8002000D5002000D200200027
:100FF000CF002000CC002000C9002000C600200047
:10100000C6002000C9002000CC002000CF00200036
:10101000D2002000D5002000D8002000DB002000F6
:10102000DE002000E1002000E4002000E7002000B6
:10103000EA002000ED002000F0002000F300200076
:10104000F6002000F9002000FC002000FF00200036
:101050000201200005012000080120000B012000F2
:101060000E012000110120001401200017012000B2
:101070001A0120001D012000200120002301200072
:1010800026012000290120002C0120002C01200035
:10109000290120002601200023012000200120003A
:1010A0001D0120001A01200017012000140120005A
:1010B000110120000E0120000B012000080120007A
:1010C0000501200002012000FF002000FC0020009C
:1010D000F9002000F6002000F3002000F0002000BE
:1010E000ED002000EA002000E7002000E4002000DE
:1010F000E1002000DE002000DB002000D8002000FE
:10110000D5002000D2002000CF002000CC0020001D
:10111000C9002000C6002000C6002000C900200031
:10112000CC002000CF002000D2002000D5002000FD
:10113000D8002000DB002000DE002000E1002000BD
:10114000E4002000E7002000EA002000ED0020007D
:10115000F0002000F3002000F6002000F90020003D
:10116000FC002000FF0020000201200005012000FB
:10117000080120000B0120000E01200011012000B9
:1011800014012000170120001A0120001D01200079
:101190002001200023012000260120002901200039
:1011A0002C0120002C012000290120002601200014
:1011B00023012000200120001D0120001A01200031
:1011C0001701200014012000110120000E01200051
:1011D0000B01200008012000050120000201200071
:1011E000FF002000FC002000F9002000F600200095
:1011F000F3002000F0002000ED002000EA002000B5
:10120000E7002000E4002000E1002000DE002000D4
:10121000DB002000D8002000D5002000D2002000F4
:10122000CF002000CC002000C9002000C600200014
:10123000C6002000C9002000CC002000CF00200004
:10124000D2002000D5002000D8002000DB002000C4
:10125000DE002000E1002000E4002000E700200084
:10126000EA002000ED002000F0002000F300200044
:10127000F6002000F9002000FC002000FF00200004
:101280000201200005012000080120000B012000C0
:101290000E01200011012000140120001701200080
:1012A0001A0120001D012000200120002301200040
:1012B00026012000290120002C010000700F8C075E
:1012C0008C006409880CE40B45617379526964658C
:1012D000722076657273696F6E20312E30204D61F9
:1012E000726368203230313300531349133F13F1D6
:1012F00012323031332042617320427275676D6162
:101300006E202D20687474703A2F2F7777772E76A1
:101310006973696F6E6E616972652E6E6C202D2027
:10132000747970652068656C7020666F7220636FD9
:101330006D6D616E64206F766572766965770028E1
:101340005F293D3D27285F29002E2D2E2D2E3D5C47
:101350002D2E00202020205F00436F6D6D616E6494
:10136000206E6F7420666F756E642E0073686F77E1
:1013700020636F6E663A2073686F77204545505240
:101380004F4D20636F6E66696775726174696F6E29
:101390000073657420636F6E66205B7661726961AD
:1013A000626C6520616262722E5D205B76616C7595
:1013B000655D3A2073657420636F6E666967757248
:1013C0006174696F6E2076616C756573202F205291
:1013D000455345542044455649434520746F207574
:1013E0007365206E65772076616C75657321007377
:1013F0006574206473656E7365205B313662697451
:10140000735D2028656E61626C652F64697361622B
:101410006C6529205B3136626974735D20286869C8
:1014200067682F6C6F77293A207365742064796E32
:10143000616D69632073656E7365730073686F77A0
:1014400020766F6C746167653A2073686F772063EC
:10145000757272656E742062617474657279206150
:101460006E6420616363656C65726F6D657465722F
:1014700020782F792F7A206178697320766F6C74C9
:10148000616765730073686F772073746174653A80
:101490002073686F772063757272656E7420737441
:1014A0006174652C2073656E73657320616E6420B2
:1014B0006576656E742071756575650073686F7704
:1014C0002076657273696F6E3A2073686F77206655
:1014D00069726D776172652076657273696F6E00EF
:1014E00072657365743A207265626F6F74207468F8
:1014F00065206D6963726F636F6E74726F6C6C657B
:10150000720068656C703A2073686F7720636F6D46
:101510006D616E64206F766572766965770011245F
:101520001FBECFEFD0E4DEBFCDBF14E0A0E0B1E03E
:10153000E2E6F1E500E00BBF02C007900D92A63590
:10154000B107D9F712E1A6E5B4E001C01D92AB34B2
:10155000B107E1F729D60C94AF280C940000209134
:1015600043123091441240914312509144122F7B08
:10157000387F81E02417350709F080E008958091D5
:1015800043129091441220914312309144128B7B6C
:1015900099278217930711F080E008952091431254
:1015A0003091441240914312509144122B7B307F72
:1015B00081E02417350789F380E0EFCF8091431253
:1015C0009091441220914312309144128D7B9927BF
:1015D0008217930711F080E0089520914312309113
:1015E000441240914312509144122D7B307F81E090
:1015F0002417350789F380E0EFCF80914312909153
:10160000441220914312309144128F7A98708217BD
:10161000930711F080E00895209143123091441215
:1016200040914312509144122F7A387F81E0241761
:10163000350789F380E0EFCF8091431290914412F7
:1016400020914312309144128F7B98708217930738
:1016500011F080E00895209143123091441240919E
:101660004312509144122F7B387F81E024173507B5
:1016700089F380E0EFCF8091431290914412209142
:101680004312309144128F7398708217930711F0B0
:1016900080E008952091431230914412409143120A
:1016A000509144122F73387F81E02417350789F356
:1016B00080E0EFCF80914312909144122091431229
:1016C000309144128F7998708217930711F080E05F
:1016D0000895209143123091441240914312509149
:1016E00044122F79387F81E02417350789F380E091
:1016F000EFCF809143129091441220914312309188
:101700004412897B99278217930711F080E008958E
:10171000209143123091441240914312509144124F
:10172000297B307F81E02417350789F380E0EFCFF4
:1017300080914312909144122091431230914412AF
:10174000877B98708217930711F080E008952091AD
:101750004312309144124091431250914412277B1E
:10176000387F81E02417350789F380E0EFCF20919F
:10177000431230914412409143125091441220740C
:10178000337081E02417350709F080E00895209137
:101790004312309144124091431250914412222737
:1017A000327081E02417350709F080E008958091B8
:1017B0004312909144129695879581700895809177
:1017C00043129091441296958795969587958170CE
:1017D000089580914312909144129695879596951D
:1017E0008795969587958170089580914312909181
:1017F0004412880F892F881F990B91958170089545
:101800008091431290914412929582958F7089270E
:101810009F7089278170089580914312909144129E
:1018200093FB882780F90895809143129091441288
:1018300096958795929582958F7089279F708927B5
:1018400081700895209143123091441240914312C7
:10185000509144122F7B3C7F81E02417350709F01B
:1018600080E0089520914312309144124091431238
:10187000509144122227317081E02417350709F076
:1018800080E008950C98049A0D98059A23981B9A65
:101890002098189A0E98069A2198199A0F98079AE4
:1018A00022981A9A5098489A5198499A3A9A3D9A89
:1018B000389A3B9A399A3C9A569A3F9A579A3E9A46
:1018C0004298459840984398419844985E98479824
:1018D0005F984698559A5D98549A5C9A8FEF90E07D
:1018E00090932C1080932B1080912B1090912C10A2
:1018F000982F88278F6F90932C1080932B1008952A
:101900008091C904882301F180915E04880F80933F
:101910005E041092C90480915E0420E2829FC0019F
:1019200011249927892B81F48091431290914412BC
:101930008D7F9093441280934312409843988091F6
:101940006A0181115D98429808958091C9048823A5
:1019500069F080915E04880F816080935E0410922C
:10196000C90480915E048770873009F008958091E2
:10197000D2048823D9F388B191E0892788B988B146
:1019800098E0892788B988B194E0892788B980913F
:101990006A01882321F08BB190E289278BB91092DC
:1019A000D204809143129091441281FDDFCF1092B6
:1019B00085001092840080914312909144128260BD
:1019C000909344128093431208958091C804882311
:1019D00001F180915D04880F80935D041092C8042A
:1019E00080915D0420E2829FC00111249927892BF8
:1019F00081F480914312909144128B7F9093441212
:101A0000809343124198449880916A0181115D98B6
:101A1000429808958091C804882369F080915D04FC
:101A2000880F816080935D041092C80480915D04EA
:101A30008770873009F008958091D1048823D9F305
:101A400088B192E0892788B988B190E1892788B95F
:101A500088B194E0892788B980916A01882321F0B0
:101A60008BB190E289278BB91092D10480914312F7
:101A70009091441282FDDFCF109285001092840075
:101A80008091431290914412846090934412809309
:101A9000431208958091C704882369F080915C0403
:101AA000880F816080935C041092C70480915C046D
:101AB0008770873009F008955E9A80914312909163
:101AC000441283FDF8CF80914312909144128860B4
:101AD000909344128093431208958091C704882301
:101AE000D1F080915C04880F80935C041092C7044D
:101AF00080915C0420E2829FC00111249927892BE8
:101B000051F48091431290914412877F9093441234
:101B1000809343125E9808958091C104882369F0F0
:101B200080915604880F8160809356041092C104FE
:101B3000809156048770873009F008958091D00411
:101B40008823D9F388B191E0892788B988B198E0D2
:101B5000892788B988B192E0892788B988B190E14E
:101B6000892788B988B194E0892788B980916A016A
:101B7000882321F08BB190E289278BB91092D00491
:101B8000809143129091441293FDD7CF109285001B
:101B900010928400409A439A419A449A429A8091C2
:101BA0004312909144129860909344128093431290
:101BB00008958091C104882311F180915604880F03
:101BC000809356041092C1048091560420E2829FB3
:101BD000C00111249927892B91F48091431290918F
:101BE0004412977F909344128093431241984498F3
:101BF0004098439880916A0181115D9842980895B8
:101C00008091BF04882339F11092BF0420913B12C8
:101C100030913C1280917401909175012817390719
:101C2000D8F020913B1230913C122817390798F0D8
:101C30008091BE04882379F08091CF04882359F0E5
:101C40001092BE04419844984098439880916A014C
:101C500081115D98429808952091CF04222309F3C1
:101C600091E09093BE0488B1892788B988B198E043
:101C7000892788B988B192E0892788B988B190E12D
:101C8000892788B988B194E0892788B980916A0149
:101C9000882321F08BB190E289278BB91092CF0471
:101CA00008958091C604882369F080915B04880FB1
:101CB000816080935B041092C60480915B048770FE
:101CC000873009F0089580E094E090934412809367
:101CD000431208958091C404882369F080915A04C6
:101CE000880F816080935A041092C40480915A0432
:101CF0008770873009F00895479A80914312909138
:101D0000441284FDF8CF8091431290914412806177
:101D1000909344128093431208958091C4048823C1
:101D2000D1F080915A04880F80935A041092C40411
:101D300080915A0420E2829FC00111249927892BA7
:101D400051F480914312909144128F7E90934412EB
:101D500080934312479808958091C304882369F0C3
:101D600080915904880F8160809359041092C304B4
:101D7000809159048770873009F008955F9A8091A7
:101D800043129091441287FDF8CF809143129091B5
:101D90004412806890934412809343120895809176
:101DA000C3048823D1F080915904880F809359048B
:101DB0001092C3048091590420E2829FC001112433
:101DC0009927892B51F480914312909144128F7777
:101DD00090934412809343125F9808958091C204B7
:101DE000882369F080915804880F8160809358049B
:101DF0001092C204809158048770873009F00895CA
:101E0000469A809143129091441285FDF8CF8091BB
:101E10004312909144128062909344128093431233
:101E200008958091C2048823D1F080915804880FCE
:101E3000809358041092C2048091580420E2829F3B
:101E4000C00111249927892B51F48091431290915C
:101E500044128F7D909344128093431246980895C4
:101E60008091C504882369F080915704880F8160B0
:101E7000809357041092C50480915704877087306F
:101E800009F008951092CD0480E091E090934412FF
:101E90008093431208958091C0048823D9F08091E3
:101EA00037129091381282379140A8F490916B04C8
:101EB00089E2989F812D112482958F7024E6829F5C
:101EC00090191124911104C088B190E2892788B932
:101ED0001092C00408958091371290913812853F76
:101EE000914080F090916B0489E2989F812D11249C
:101EF00086958695869522E3829F901911249111EB
:101F0000E7CFE2CF459A1092C004E4CF8091C50498
:101F1000882381F080915704880F80935704109292
:101F2000C5048091570420E2829FC00111249927A3
:101F3000892B09F008954298459840984398419814
:101F4000449847985F9846985E981092CD0480E038
:101F500092E0909344128093431208958091C604B6
:101F6000882381F080915B04880F80935B0410923A
:101F7000C60480915B0420E2829FC001112499274E
:101F8000892B09F0089542984598409843984198C4
:101F9000449847985F9846985E985D981092CE0452
:101FA00080E092E0909344128093431208951F9230
:101FB0000F920FB60F9211240BB60F922F938F939F
:101FC0009F93AF93BF93EF93FF93E0917204F0E080
:101FD0008091780090E0EE0FFF1FE95CFD4E918349
:101FE0008083E0917204F0E0A0917204B0E0AA0F47
:101FF000BB1FA95CBD4E8D919C9120917900922BC5
:10200000EE0FFF1FE95CFD4E91838083E091720427
:10201000F0E0EE0FFF1FE95CFD4E8081918101969B
:1020200091838083809172048F5F8093720480918A
:102030007204843010F01092720480917C009091B0
:102040007204887F892B80937C0080917A00806461
:1020500080937A00FF91EF91BF91AF919F918F9103
:102060002F910F900BBE0F900FBE0F901F901895E1
:102070001F920F920FB60F9211248F939F9381E0BE
:102080008093C9048093C8048093C7048093C604D6
:102090008093C4048093C3048093C2048093C504D6
:1020A0008093C1048093C0048093BF0480916B042B
:1020B000893C10F010926B0480916B048F5F8093C9
:1020C0006B048091790490917A04892B49F0809176
:1020D000790490917A04019790937A04809379041B
:1020E0008091770490917804892B49F0809177044E
:1020F000909178040197909378048093770480916D
:10210000D4049091D504892B49F08091D404909106
:10211000D50401979093D5048093D4049F918F9117
:102120000F900FBE0F901F9018951F920F920FB631
:102130000F9211248F939F9381E08093D204809318
:10214000D1048093CC048093D0048093CF048091F9
:10215000600490916104892B49F080916004909112
:1021600061040197909361048093600480916A04F4
:102170008F5F80936A049F918F910F900FBE0F9095
:102180001F9018951F920F920FB60F9211248F93E4
:102190009F938BB190E289278BB99F918F910F907C
:1021A0000FBE0F901F901895CF93DF93CDB7DEB77A
:1021B000A0970FB6F894DEBF0FBECDBF80E885BFF5
:1021C00085BF2FE088E190E00FB6F894A895809342
:1021D00060000FBE20936000789480917C00909105
:1021E0007204887F892B80937C0080917C008064BE
:1021F00080937C008FE080937E0080917A008068DD
:1022000080937A0080917A00876080937A00809131
:102210007A00886080937A0080917A00806480934D
:102220007A0080E092E090934412809343121092DF
:102230007B0410927C0480E090E00E9406282091AC
:102240006401309165018217930721F09093650135
:102250008093640182E090E00E940628209166014C
:10226000309167018217930721F090936701809363
:10227000660184E090E00E94062820916801309178
:1022800069018217930721F0909369018093680197
:1022900086E090E00E94FE2790916A018913809366
:1022A0006A0187E090E00E94062820916B0130913E
:1022B0006C018217930721F090936C0180936B015E
:1022C00089E090E00E94FE2790916D018913809330
:1022D0006D018AE090E00E94FE2790916E018913C3
:1022E00080936E018BE090E00E94FE2790916F0139
:1022F000891380936F018CE090E00E94FE279091FB
:1023000070018913809370018DE090E00E9406288F
:1023100020917101309172018217930721F09093FF
:102320007201809371018FE090E00E94FE279091EE
:10233000730189138093730180E190E00E94062865
:1023400020917401309175018217930721F09093C9
:1023500075018093740182E190E00E94FE279091C4
:10236000760189138093760183E190E00E94FE2735
:102370009091770189138093770140E250E064E106
:1023800070E0CE0101960E94EE2768E771E0CE0171
:1023900001960E949B27892B39F0BE016F5F7F4F0A
:1023A00088E791E00E94A4278091640190916501E3
:1023B000909361048093600465DA85B5886085BD7B
:1023C00084B5826084BD85B5856085BD85B58D7F0A
:1023D00085BD80916E00826080936E0081E687BD2E
:1023E000809180008C7F8093800080918100886044
:1023F000809381008091810085608093810080912D
:1024000081008D7F8093810080916F008260809336
:102410006F0080916B0190916C0190938900809383
:102420008800809190008C7F809390008091910033
:1024300088608093910080919100836080939100E7
:10244000809191008B7F8093910084E490E0909341
:102450009900809398000E94D71A6BE474E28BE095
:1024600094E20E94A61C0E94E81E69E0C62E78E055
:10247000D72EE9E98E2EE9E19E2EF0EE2F2EFEE218
:102480003F2EA5E54A2EA5E15A2E612C77247394A0
:102490000E94AF1C80912B1090912C1084FF04C0DF
:1024A000189B0FC61899EDC580913F12909140126C
:1024B00084FF24C08091411290914212E0917C04EB
:1024C000F0E0E358FB4F84FDDDC4D08280917C04B2
:1024D0008F5F80937C0480917C04803410F0109294
:1024E0007C0490917C0480917B04981709F475C555
:1024F00080917B04803410F010927B0480912B102B
:1025000090912C1087FF04C01B9B94C51B9971C52B
:1025100080913F129091401287FF25C08091411217
:1025200090914212E0917C04F0E0E358FB4F87FD6C
:10253000ABC486E0808380917C048F5F80937C04B1
:1025400080917C04803410F010927C0490917C0483
:1025500080917B04981709F446C580917B048034F0
:1025600010F010927B0480912B1090912C1080FF22
:1025700004C0049B0EC60499E5C580913F1290915A
:10258000401280FF25C08091411290914212E0914B
:102590007C04F0E0E358FB4F80FD78C482E0808348
:1025A00080917C048F5F80937C0480917C048034D4
:1025B00010F010927C0490917C0480917B04981719
:1025C00009F459C580917B04803410F010927B048B
:1025D00080912B1090912C1081FF04C0059BFAC5AF
:1025E00005998FC580913F129091401281FF25C0BF
:1025F0008091411290914212E0917C04F0E0E35806
:10260000FB4F81FD45C483E0808380917C048F5F14
:1026100080937C0480917C04803410F010927C04C0
:1026200090917C0480917B04981709F4ACC580914B
:102630007B04803410F010927B0480912B109091D9
:102640002C1083FF23C007991FC0E0917C04F0E0A9
:10265000E358FB4F8CE0808380917C048F5F8093F4
:102660007C0480917C04803410F010927C04909162
:102670007C0480917B04981709F4EDC680917B045B
:10268000803410F010927B040799F4C680913F12B9
:102690009091401283FF25C0809141129091421287
:1026A000E0917C04F0E0E358FB4F83FDF3C38CE042
:1026B000808380917C048F5F80937C0480917C0474
:1026C000803410F010927C0490917C0480917B0403
:1026D000981709F4A6C580917B04803410F01092FD
:1026E0007B0480912B1090912C1082FF04C0069BDC
:1026F000C5C50699A2C580913F129091401282FFF4
:1027000025C08091411290914212E0917C04F0E04A
:10271000E358FB4F82FDC0C38AE0808380917C0434
:102720008F5F80937C0480917C04803410F0109241
:102730007C0490917C0480917B04981709F477C500
:1027400080917B04803410F010927B0480912B10D8
:1027500090912C1086FF04C01A9BD8C51A99AFC55A
:1027600080913F129091401286FF25C080914112C6
:1027700090914212E0917C04F0E0E358FB4F86FD1B
:102780008DC382E1808380917C048F5F80937C0481
:1027900080917C04803410F010927C0490917C0431
:1027A00080917B04981709F436C580917B048034AE
:1027B00010F010927B048091431290914412811585
:1027C000944009F4BAC28091CA04882309F455C020
:1027D0008091D4049091D504892B09F04EC080914A
:1027E000730490917404FC012591349121153105F5
:1027F00009F4BFC34091750450917604841795077E
:1028000009F479C66091D3049C01FC01E590F49031
:1028100070E0C1010E949624CB01880F991F880F98
:10282000991FB7010E9482247093D5046093D40449
:102830002E5F3F4F3093740420937304F901859108
:102840009491019709F40DC6809171008260809384
:1028500071008091730490917404FC01259134916E
:102860003093990020939800109295001092940054
:102870000296909374048093730480912B1090912E
:102880002C1085FF04C0199BC5C5199981C580917D
:102890003F129091401285FF25C080914112909186
:1028A0004212E0917C04F0E0E358FB4F85FDE8C262
:1028B0008EE0808380917C048F5F80937C04809184
:1028C0007C04803410F010927C0490917C04809100
:1028D0007B04981709F414C580917B04803410F0B0
:1028E00010927B0480914312909144128115914083
:1028F00009F42EC1809143129091441280349105C5
:1029000009F4E7C080914312909144122091431240
:10291000309144128F7B987F8217930709F432C35A
:1029200080912B1090912C1090FF04C0489B51C5B2
:1029300048990DC580913F129091401290FF25C09B
:102940008091411290914212E0917C04F0E0E358B2
:10295000FB4F90FD93C284E1808380917C048F5F64
:1029600080937C0480917C04803410F010927C046D
:1029700090917C0480917B04981709F428C380917E
:102980007B04803410F010927B048091431290916C
:1029900044128115924009F43DC2809164019091E6
:1029A00065019093610480936004809173018111AB
:1029B00053C090917B0480917C04981709F444C023
:1029C000E0917B04F0E0E358FB4F908180917B0421
:1029D0008F5F80937B0480917B04803410F0109291
:1029E0007B049093BD04992389F102E011E0A12CAE
:1029F000B12C09C0FFEFAF1ABF0A0B5F1F4F24E1D4
:102A0000A216B104B1F2F80132970190F081E02DE5
:102A10000995882379F38091BD04F801908198137A
:102A2000E9CFF501EE0FFF1FEE0FFF1FEA0DFB1DB3
:102A3000E050FF4F0380F481E02D099590917B04D5
:102A400080917C049813BCCF1092BD048091361203
:102A500081111ECDA8951CCD8091431290914412F6
:102A60002091431230914412897B99278217930752
:102A700009F09FCF8091431290914412209143120C
:102A800030914412897B907F8217930709F091CF90
:102A9000E0917C04F0E0E358FB4F86E18083809175
:102AA0007C048F5F80937C0480917C04803410F0E0
:102AB00010927C0490917C0480917B04981709F417
:102AC000FEC480917B04803408F473CF10927B04A1
:102AD00070CF8091CB04882309F4FDC18091CC0490
:102AE000882309F40FCF1092CC0488B191E0892794
:102AF00088B988B18D2588B988B192E0892788B9CD
:102B000088B190E1892788B988B194E0892788B98C
:102B10008BB190E489278BB98091690481508093AF
:102B20006904809169048111EDCE429845984098DE
:102B300043984198449847985F9846985E981092B9
:102B4000CB0470924412609243121092CD04DACEFC
:102B50008091CD04811155C08091770181111FC0F2
:102B600060913712709138128091391290913A1217
:102B700040913B1250913C1220913D1230913E12F7
:102B8000860F971F840F951F820F931F0E941C268C
:102B90000E941926B2010E94962481E0860F21E04E
:102BA0002093CD04429A409A439A419A449A1092B3
:102BB000D5041092D40490E0880F991F86549D4E3E
:102BC000FC01859194919093740480937304909385
:102BD0007604809375042093CA04809168019091D3
:102BE00069019093780480937704109264041092A2
:102BF00063041092660410926504109268041092A7
:102C000067048091630490916404892B09F45AC18C
:102C100020916304309164048091391290913A12AA
:102C2000820F931F96958795909364048093630415
:102C30008091650490916604892B09F43AC1209132
:102C400065043091660480913B1290913C12820F92
:102C5000931F969587959093660480936504809161
:102C6000670490916804892B09F41AC120916704C4
:102C70003091680480913D1290913E12820F931F13
:102C80009695879590936804809367048091770464
:102C900090917804892B09F02DCE80916304909156
:102CA00064042091700130E02817390708F022CE23
:102CB000409163045091640480917101909172017C
:102CC0004817590708F016CE4091650450916604E4
:102CD0002417350708F00ECE409165045091660424
:102CE0004817590708F006CE4091670450916804D0
:102CF0002417350708F0FECD209167043091680451
:102D00002817390708F0F6CD1092CD04429845985F
:102D1000409843984198449847985F9846985E98A1
:102D200080916D018093690410925F0480E490E0CB
:102D30009093441280934312DDCD8091CE04811193
:102D40004FC08091760191E09093CE04429A459ACB
:102D5000409A439A419A449A479A5F9A469A5E9853
:102D60001092D5041092D40481111FC060913712C3
:102D7000709138128091391290913A1240913B1221
:102D800050913C1220913D1230913E12860F971FB8
:102D9000840F951F820F931F0E941C260E941926E4
:102DA000B4010E94962482E0860F90E0880F991F5C
:102DB00086549D4EFC018591949190937404809368
:102DC0007304909376048093750481E08093CA0421
:102DD000809166019091670190937A0480937904C1
:102DE0008091790490917A04892B09F0ECCC1092AF
:102DF000CE0481E090E09093441280934312429875
:102E0000459840984398419844985E9847985F98B1
:102E10004698D9CC8091600490916104892B09F087
:102E2000C4CD0E94420C80917A008F7780937A0003
:102E300011B88FEF82B988E10FB6F89480936000E3
:102E4000109260000FBE5C9810922C1010922B1004
:102E5000809164008FEF80936400809165008160B1
:102E60008093650083B7817F846083BF83B781606F
:102E700083BF889583B78E7F83BF97CD85E16CCD67
:102E80008FE017CDC08222CB87E054CB84E087CB84
:102E900085E0BACB8DE00CCC8BE03FCC83E172CCEB
:102EA00080913D1290913E12909368048093670444
:102EB000EDCE80913B1290913C12909366048093EA
:102EC0006504CDCE8091391290913A1290936404AA
:102ED00080936304ADCE8091CC04882309F412CD95
:102EE0001092CC0480916A04837009F0C1C2429AA6
:102EF0008091391290913A12409163045091640488
:102F000020916E0130E0841B950B97FDF0C22817CD
:102F10003907FCF080913B1290913C12409165047E
:102F200050916604841B950B97FD3DC32817390704
:102F300084F080913D1290913E124091670450912F
:102F40006804841B950B97FD2AC3281739070CF0DA
:102F5000D9CC80915F048F5F80935F0480915F0480
:102F600090916F01891708F4CDCC81E08093CB0458
:102F7000C9CC1092CA04809171008D7F809371003A
:102F80005D987BCCE0917C04F0E0E358FB4F80E15E
:102F9000808380917C048F5F80937C0480917C048B
:102FA000803410F010927C0490917C0480917B041A
:102FB000981305C080917B048F5F80937B04809180
:102FC0007B04803408F4ACCC10927B04A9CC8091B3
:102FD0007B048F5F80937B04D2CC80917B048F5FD6
:102FE00080937B0485CA80917B048F5F80937B04F0
:102FF000B4CAE0917C04F0E0E358FB4F27E0208363
:1030000080917C048F5F80937C0480917C04803469
:1030100010F010927C0490917C0480917B049817AE
:1030200009F46FC280917B04803408F471CA109255
:103030007B046ECAE0917C04F0E0E358FB4F86E02D
:10304000808380917C048F5F80937C0480917C04DA
:10305000803410F010927C0490917C0480917B0469
:10306000981709F45AC280917B04803408F44ECA40
:1030700010927B044BCA80917B048F5F80937B040A
:10308000A1CAE0917C04F0E0E358FB4FC08280913C
:103090007C048F5F80937C0480917C04803410F0EA
:1030A00010927C0490917C0480917B04981709F421
:1030B0002EC280917B04803408F4F6C910927B0400
:1030C000F3C9E0917C04F0E0E358FB4FD08280919B
:1030D0007C048F5F80937C0480917C04803410F0AA
:1030E00010927C0490917C0480917B04981709F4E1
:1030F00020C280917B04803408F4D4C910927B04F0
:10310000D1C9E0917C04F0E0E358FB4F85E0808377
:1031100080917C048F5F80937C0480917C04803458
:1031200010F010927C0490917C0480917B0498179D
:1031300009F4D1C180917B04803408F453CA109201
:103140007B0450CAE0917C04F0E0E358FB4F84E03C
:10315000808380917C048F5F80937C0480917C04C9
:10316000803410F010927C0490917C0480917B0458
:10317000981709F4D8C180917B04803408F4FDC904
:1031800010927B04FAC980917B048F5F80937B044B
:103190004ECAE0917C04F0E0E358FB4F82E080836C
:1031A00080917C048F5F80937C0480917C048034C8
:1031B00010F010927C0490917C0480917B0498170D
:1031C00009F4BDC180917B04803408F4D4C9109205
:1031D0007B04D1C9E0917C04F0E0E358FB4F83E02D
:1031E000808380917C048F5F80937C0480917C0439
:1031F000803410F010927C0490917C0480917B04C8
:10320000981709F4BAC180917B04803408F4E8C9A6
:1032100010927B04E5C980917B048F5F80937B04CF
:10322000C4CA80917B048F5F80937B0454CA8091D1
:103230007B048F5F80937B0483CAE0917C04F0E081
:10324000E358FB4F8BE0808380917C048F5F8093F9
:103250007C0480917C04803410F010927C04909166
:103260007C0480917B04981709F43BC180917B0416
:10327000803408F440CA10927B043DCAE0917C047B
:10328000F0E0E358FB4F8AE0808380917C048F5FFD
:1032900080937C0480917C04803410F010927C0434
:1032A00090917C0480917B04981709F44EC1809121
:1032B0007B04803408F41DCA10927B041ACAE09182
:1032C0007C04F0E0E358FB4F83E1808380917C0431
:1032D0008F5F80937C0480917C04803410F0109286
:1032E0007C0490917C0480917B04981709F433C18D
:1032F00080917B04803408F433CA10927B0430CA76
:1033000080917B048F5F80937B04E6CAE0917C040C
:10331000F0E0E358FB4F82E1808380917C048F5F73
:1033200080937C0480917C04803410F010927C04A3
:1033300090917C0480917B04981709F424C18091BA
:103340007B04803408F40ACA10927B0407CAE09117
:103350007C04F0E0E358FB4F85E1808380917C049E
:103360008F5F80937C0480917C04803410F01092F5
:103370007C0490917C0480917B04981709F4F1C03F
:1033800080917B04803408F4D5CA10927B04D2CAA1
:10339000E0917C04F0E0E358FB4F8FE08083809164
:1033A0007C048F5F80937C0480917C04803410F0D7
:1033B00010927C0490917C0480917B04981709F40E
:1033C000E8C080917B04803408F461CA10927B04C9
:1033D0005ECAE0917C04F0E0E358FB4F84E1808317
:1033E00080917C048F5F80937C0480917C04803486
:1033F00010F010927C0490917C0480917B049817CB
:1034000009F4B5C080917B04803408F491CA10920D
:103410007B048ECAE0917C04F0E0E358FB4F8EE021
:10342000808380917C048F5F80937C0480917C04F6
:10343000803410F010927C0490917C0480917B0485
:10344000981709F442C080917B04803408F41DCAA7
:1034500010927B041ACA80917B048F5F80937B0457
:103460000DC9809171008D7F809371005D98F1C9C5
:1034700042983ECDE0917C04F0E0E358FB4F8DE0B4
:10348000808380917C048F5F80937C0480917C0496
:10349000803410F010927C0490917C0480917B0425
:1034A000981305C080917B048F5F80937B0480918B
:1034B0007B04803408F4EAC810927B04E7C880914A
:1034C0007B048F5F80937B04FCCA80917B048F5FB9
:1034D00080937B04B8CF80917B048F5F80937B04C3
:1034E00029CE80917B048F5F80937B04BFCE919522
:1034F000819591090CCD2093D3040296622F9C01F3
:1035000084C980917B048F5F80937B048BCD8091F5
:103510007B048F5F80937B04CCCD80917B048F5F95
:1035200080937B04A0CD80917B048F5F80937B048C
:1035300022CE80917B048F5F80937B04DACD8091D3
:103540007B048F5F80937B043DCE80917B048F5FF3
:1035500080937B04ACCE80917B048F5F80937B044F
:10356000C7CE80917B048F5F80937B0409CF8091CD
:103570007B048F5F80937B0445CF80917B048F5FBA
:1035800080937B0440CE80917B048F5F80937B048B
:10359000D6CE80917B048F5F80937B0412CF919570
:1035A00081959109D2CC919581959109BFCCF894E0
:1035B00081E890E09093CD008093CC0082E08093EE
:1035C000C80088E98093C90086E08093CA00109201
:1035D000DC071092DD071092DA061092DB06789471
:1035E00008952091DD072F5F9091DC079217E1F39A
:1035F000E22FF0E0E252F84F80832093DD0788EB62
:103600008093C90008959091DA069F5FE92FF0E05A
:10361000E452F94F80819093DA060895FC012081ED
:103620002223B1F0DC01119638EB9091DD079F5F0A
:103630008091DC079817E1F3E92FF0E0E252F84FB0
:1036400020839093DD073093C9002D912111EDCF98
:1036500008959C012F5F3F4FFC0184918823B1F0B6
:10366000F90138EB2091DD072F5F9091DC072917D6
:10367000E1F3A22FB0E0A252B84F8C932093DD0764
:103680003093C900849131968111ECCF08951F9237
:103690000F920FB60F9211240BB60F928F939F9338
:1036A000EF93FF939091DD078091DC079817B9F0B5
:1036B0008091DC078F5FE82FF0E0E252F84F9081B5
:1036C0009093CE008093DC07FF91EF919F918F91B3
:1036D0000F900BBE0F900FBE0F901F90189580910A
:1036E000C9008F7D8093C900EFCF1F920F920FB654
:1036F0000F9211240BB60F922F938F939F93EF93FA
:10370000FF932091CE008091DB068F5F9091DA06C7
:10371000891739F0E82FF0E0E452F94F20838093C5
:10372000DB06FF91EF919F918F912F910F900BBE30
:103730000F900FBE0F901F9018958091DB0690910F
:10374000DA06891B08958F929F92BF92CF92DF92E3
:10375000EF92FF920F931F93CF93DF931F92CDB7FA
:10376000DEB77C016B018901B090E2098B2C912CB2
:1037700085E090E049830E94A924FC01C401880FE0
:10378000991F880F991F8E51974FDC011196FC935A
:10379000EE9349813097D1F0D182C082F382E282E8
:1037A000448313961C930E931297B394B092E2093C
:1037B00081E00F90DF91CF911F910F91FF90EF90DB
:1037C000DF90CF90BF909F908F90089580E0F1CFD1
:1037D0001F93CF93DF931092E3091092030A109284
:1037E000230A1092430A1092630A1092830A1092DD
:1037F000A30A1092C30A1092E30A1092030B50918D
:10380000230C22EE38E010E0D901ED91FC91C28149
:10381000D38188818823F1F085131CC0DE011196C5
:1038200080E007C0E82FF0E0ED5DF34F4081941396
:1038300004C08F5F9D919111F5CF882359F0FE014F
:1038400001900020E9F73197EC1BFD0B90E08E17FB
:103850009F0751F01F5F2C5F3F4F1034A9F680E4A3
:10386000DF91CF911F9108956CE773E08D5D934FC9
:103870000E948F27DC018C91882331F1C0E00AC0BF
:103880006CE773E080E090E00E948F27DC019C9160
:103890009923D1F0FD0101900020E9F73197EA1B4F
:1038A000FB0BE132F10560F7D1E0DC0F20E2C29FB3
:1038B000C0011124AF014F5F5F4FBD018D51964F85
:1038C0000E949227CD2FDCCF812FDF91CF911F91C6
:1038D0000895CF93DF93C9EED2E1FE0185919491D3
:1038E000E091DE08F091DF0842E061E00995229660
:1038F00082E1C13FD80789F7E091DE08F091DF0847
:1039000040E060E080919801909199010995E091E3
:10391000DE08F091DF0840E060E085EB91E009957A
:10392000E091DE08F091DF0840E060E080919A01CC
:1039300090919B010995E091DE08F091DF0840E04D
:1039400060E087EB91E0DF91CF9109949093E108DB
:103950008093E0087093DF086093DE08BACFE091AF
:10396000E008F091E10863E27CE080E00995809155
:10397000230C811101C008952BDF8034D1F0E82F92
:10398000F0E0EE0FFF1FEE0FFF1FEE51F74F02802A
:10399000F381E02D63EE79E083E29BE00995E0910D
:1039A000DE08F091DF0843E060E083E29BE00995E8
:1039B00090CFE091DE08F091DF0843E061E089E517
:1039C00093E1099586CF21E0209336122EE0EAEBB1
:1039D000F1E0DC0101900D922A95E1F7089568EC81
:1039E00072E10C9488270F931F93CF93DF93EC0120
:1039F0008B0110922C1010922B1042E050E060E0EE
:103A000070E0C8010E9427267093401260933F1215
:103A100042E050E060E070E0C80180960E942726F6
:103A2000709342126093411280E1E8ECF1E0DE0114
:103A300001900D928A95E1F7DF91CF911F910F913F
:103A400008950F931F93CF93DF938C01EB0188EDC3
:103A500091E00E949B27892B09F479C0BE018DED6E
:103A600091E00E949B27892B09F487C0BE018CED51
:103A700091E00E949B27892B09F489C0BE0180EE4A
:103A800091E00E949B27892B09F495C0BE0183EE2B
:103A900091E00E949B27892B09F483C0BE0186EE2A
:103AA00091E00E949B27892B09F48FC0BE0189EE0B
:103AB00091E00E949B27892B09F49BC0BE018CEEEC
:103AC00091E00E949B27892B09F49DC0BE0180EFE5
:103AD00091E00E949B27892B09F481C0BE0186EFEB
:103AE00091E00E949B27892B09F497C0BE018CEFBF
:103AF00091E00E949B27892B09F499C0BE018FEFAA
:103B000091E00E949B27892B09F49BC0BE0183E0B2
:103B100092E00E949B27892B09F49DC0BE0186E09C
:103B200092E00E949B27892B09F49FC0BE018DEF74
:103B300091E00E949B27892B09F4A1C082E4E0E474
:103B4000F2E0D80101900D928A95E1F711C0CE0103
:103B500080960E945827BC0180E090E00E942C28AB
:103B600087E3E9E0F2E0D80101900D928A95E1F750
:103B7000DF91CF911F910F910895CE0180960E9401
:103B80005827BC0182E090E00E942C28E9CFCE01AA
:103B900080960E945827BC0184E090E00E942C2867
:103BA000DFCFCE0180960E945827BC0187E090E0CD
:103BB0000E942C28D5CFCE0180960E945827682FCE
:103BC00086E090E00E941A28CBCFCE0180960E941A
:103BD0005827682F89E090E00E941A28C1CFCE01B3
:103BE00080960E945827682F8CE090E00E941A2847
:103BF000B7CFCE0180960E945827682F8AE090E0C8
:103C00000E941A28ADCFCE0180960E945827682FB7
:103C10008BE090E00E941A28A3CFCE0180960E94EC
:103C20005827BC018DE090E00E942C2899CFCE014E
:103C300080960E945827682F8FE090E00E941A28F3
:103C40008FCFCE0180960E945827BC0180E190E082
:103C50000E942C2885CFCE0180960E945827682F7D
:103C600082E190E00E941A287BCFCE0180960E94CC
:103C70005827682F83E190E00E941A2871CF40E214
:103C800050E064E170E0CE0180960E940B2868CF7E
:103C90000F931F93CF93DF938C0162E075E186E36E
:103CA00090E10E948827C6E3D0E1DE010D9000205C
:103CB000E9F711978AE0E2E8F2E001900D928A9527
:103CC000E1F760EE74E1CE010E947D27DE010D90E8
:103CD0000020E9F711978AE0E2E8F2E001900D9206
:103CE0008A95E1F76CEB74E1CE010E947D27DE013D
:103CF0000D900020E9F711978AE0E2E8F2E00190E8
:103D00000D928A95E1F765E874E1CE010E947D2766
:103D1000DE010D900020E9F711978AE0E2E8F2E079
:103D200001900D928A95E1F76CE374E1CE010E9457
:103D30007D27DE010D900020E9F711978AE0E2E887
:103D4000F2E001900D928A95E1F76FEE73E1CE01FA
:103D50000E947D27DE010D900020E9F711978AE08F
:103D6000E2E8F2E001900D928A95E1F761E973E1F2
:103D7000CE010E947D27DE010D900020E9F711970A
:103D80008AE0E2E8F2E001900D928A95E1F76CE6B4
:103D900073E1CE010E947D2709900020E9F7219769
:103DA000C653D041DE01AA5CBF4E8AE0E2E8F2E0F1
:103DB00001900D928A95E1F7AE01465F5F4F66E391
:103DC00070E1C801DF91CF911F910F910C94922760
:103DD00028E43EE140E062E075E180E992E0B3DC96
:103DE00023EE3CE140E060EE74E185E992E0ABDC7B
:103DF0002FEE3CE140E06CEB74E18BE992E0A3DC58
:103E00002EEA30E240E065E874E188EA92E09BDC6B
:103E100022E034E240E06CE673E183EB92E093DC75
:103E20002CE431E240E06CE374E18DEB92E08BDC5A
:103E300023EF3CE140E06FEE73E18AEC92E083DC3B
:103E400021E23DE140E061E973E185ED92E07BCC68
:103E5000EF92FF920F931F93CF93DF9385E0EEEDE8
:103E6000F2E0A6E3B0E101900D928A95E1F780912E
:103E7000431290914412592F10922D1088E090E037
:103E800040E8CDE2D0E112C0AEE8B2E0FE01019020
:103E90000020E9F731978F010D5210412D913C918F
:103EA0003183208346950197009739F0242F2523ED
:103EB0004213EACFACE8B2E0E9CFA8014E5F5F4F12
:103EC0006DE270E18AE390E10E9492278EE290E039
:103ED000F801E55CFF4E91838083809143129091BD
:103EE0004412582F10922D1088E090E040E813C043
:103EF000AEE8B2E0FE0101900020E9F731979F01A2
:103F00002D52304179012D913C913183208346958A
:103F10000197009739F0242F25234213E9CFACE80D
:103F2000B2E0E8CFA7014E5F5F4F6DE270E1C801DC
:103F3000845C9F4EF7D7095F1F4F0E0D1F1DD801E0
:103F4000AA5CBF4E89E0E2E8F2E001900D928A950A
:103F5000E1F7D801A15CBF4E85E0E3EEF2E001900D
:103F60000D928A95E1F780913F1290914012592F5E
:103F700010922D1088E090E040E813C0AEE8B2E067
:103F8000FE0101900020E9F731979F012D52304149
:103F900079012D913C9131832083469501970097BB
:103FA00039F0242F25234213E9CFACE8B2E0E8CF63
:103FB000A7014E5F5F4F6DE270E1C8018D5B9F4EC0
:103FC000B1D7025F1F4F0E0D1F1DF801EA5CFF4EB7
:103FD0008EE290E09183808380913F129091401215
:103FE000582F10922D1088E090E040E813C0AEE802
:103FF000B2E0FE0101900020E9F731979F012D52B8
:10400000304179012D913C91318320834695019770
:10401000009739F0242F25234213E9CFACE8B2E012
:10402000E8CFA7014E5F5F4F6DE270E1C801895C88
:104030009F4E78D70E5F1F4F0E0D1F1DD801AA5C33
:10404000BF4E89E0E2E8F2E001900D928A95E1F737
:10405000D801A15CBF4E85E0E8EEF2E001900D9240
:104060008A95E1F78091411290914212592F109256
:104070002D1088E090E040E813C0AEE8B2E0FE0109
:1040800001900020E9F731979F012D5230417901CD
:104090002D913C913183208346950197009739F00B
:1040A000242F25234213E9CFACE8B2E0E8CFA701E3
:1040B0004E5F5F4F6DE270E1C8018D5B9F4E32D75E
:1040C000025F1F4F0E0D1F1DF801EA5CFF4E8EE2CE
:1040D00090E0918380838091411290914212582FF9
:1040E00010922D1088E090E040E813C0AEE8B2E0F6
:1040F000FE0101900020E9F731979F012D523041D8
:1041000079012D913C913183208346950197009749
:1041100039F0242F25234213E9CFACE8B2E0E8CFF1
:10412000A7014E5F5F4F6DE270E1C801895C9F4E51
:10413000F9D6D701A00FB11FA85CBF4E8AE0E2E814
:10414000F2E001900D928A95E1F786E390E1DF912C
:10415000CF911F910F91FF90EF900895CF93DF9330
:10416000EC0176DEBC01CE01DF91CF91EDC60F935D
:104170001F93CF93DF93CDB7DEB764970FB6F89454
:10418000DEBF0FBECDBF80913712909138124AE04A
:1041900050E0BE01605F7F4F0DD780913912909142
:1041A0003A124AE050E0BE01655F7F4F03D780912D
:1041B0003B1290913C124AE050E0BE016A5F7F4F93
:1041C000F9D680913D1290913E124AE050E0BE0136
:1041D0006F5F7F4FEFD606E310E189E0EDEEF2E08E
:1041E000D80101900D928A95E1F7BE01605F7F4F83
:1041F0008FE390E1A9D6F80101900020E9F731970B
:1042000040E258E76AE370E240835183628373833C
:10421000BE01655F7F4FCF01049696D6F8010190ED
:104220000020E9F7319740E259E76AE370E2408302
:10423000518362837383BE016A5F7F4FCF0104960F
:1042400083D6F80101900020E9F7319740E25AE760
:104250006AE370E24083518362837383BE016F5FC0
:104260007F4FCF01049670D6D8010D900020E9F75A
:1042700011978AE0E2E8F2E001900D928A95E1F769
:10428000C80164960FB6F894DEBF0FBECDBFDF91B4
:10429000CF911F910F910895CF93DF93EC0167DFCA
:1042A000BC01CE01DF91CF914FC60F931F93CF93E7
:1042B000DF93CDB7DEB7A0970FB6F894DEBF0FBE81
:1042C000CDBF4AE050E0BE016F5F7F4F8091640137
:1042D000909165016FD606E310E18AE1E7EFF2E025
:1042E000D80101900D928A95E1F7BE016F5F7F4F73
:1042F00080E590E129D6D8010D900020E9F71197CB
:104300008AE0E2E8F2E001900D928A95E1F74AE056
:1043100050E0BE016F5F7F4F809166019091670111
:1043200049D6F80101900020E9F7CF0101978653A3
:104330009041DC01AA5CBF4E22E1E2E1F3E0019092
:104340000D922A95E1F7BE016F5F7F4F885B9F4E0C
:10435000FBD5D8010D900020E9F711978AE0E2E83B
:10436000F2E001900D928A95E1F74AE050E0BE013B
:104370006F5F7F4F80916801909169011BD6F801B2
:1043800001900020E9F7CF01019786539041DC01AD
:10439000AA5CBF4E29E1E5E2F3E001900D922A9577
:1043A000E1F7BE016F5F7F4F815B9F4ECDD5D80196
:1043B0000D900020E9F711978AE0E2E8F2E0019021
:1043C0000D928A95E1F780916A014AE050E0BE01C2
:1043D0006F5F7F4F90E0EED5F80101900020E9F784
:1043E000CF01019786539041DC01AA5CBF4E26E1C4
:1043F000EFE3F3E001900D922A95E1F7BE016F5FC4
:104400007F4F845B9F4EA0D5D8010D900020E9F727
:1044100011978AE0E2E8F2E001900D928A95E1F7C7
:104420004AE050E0BE016F5F7F4F80916B01909139
:104430006C01C0D5F80101900020E9F7CF01019788
:1044400086539041DC01AA5CBF4E22E1E6E5F3E031
:1044500001900D922A95E1F7BE016F5F7F4F885B57
:104460009F4E72D5D8010D900020E9F711978AE090
:10447000E2E8F2E001900D928A95E1F780916D01FA
:104480004AE050E0BE016F5F7F4F90E093D5F801A6
:1044900001900020E9F7CF01019786539041DC019C
:1044A000AA5CBF4E24E1E9E6F3E001900D922A9563
:1044B000E1F7BE016F5F7F4F865B9F4E45D5D80108
:1044C0000D900020E9F711978AE0E2E8F2E0019010
:1044D0000D928A95E1F780916E014AE050E0BE01AD
:1044E0006F5F7F4F90E066D5F80101900020E9F7FB
:1044F000CF01019786539041DC01AA5CBF4E24E1B5
:10450000EEE7F3E001900D922A95E1F7BE016F5FAF
:104510007F4F865B9F4E18D5D8010D900020E9F79C
:1045200011978AE0E2E8F2E001900D928A95E1F7B6
:1045300080916F014AE050E0BE016F5F7F4F90E0D5
:1045400039D5F80101900020E9F7CF010197865392
:104550009041DC01AA5CBF4E25E1E3E9F3E0019064
:104560000D922A95E1F7BE016F5F7F4F855B9F4EED
:10457000EBD4D8010D900020E9F711978AE0E2E82A
:10458000F2E001900D928A95E1F7809170014AE086
:1045900050E0BE016F5F7F4F90E00CD5F8010190B5
:1045A0000020E9F7CF01019786539041DC01AA5C16
:1045B000BF4E2EE1E9EAF3E001900D922A95E1F772
:1045C000BE016F5F7F4F8C5A9F4EBED4D8010D90B5
:1045D0000020E9F711978AE0E2E8F2E001900D92FD
:1045E0008A95E1F74AE050E0BE016F5F7F4F80910E
:1045F000710190917201DED4F80101900020E9F779
:10460000CF01019786539041DC01AA5CBF4E2DE19A
:10461000E8ECF3E001900D922A95E1F7BE016F5F9F
:104620007F4F8D5A9F4E90D4D8010D900020E9F70E
:1046300011978AE0E2E8F2E001900D928A95E1F7A5
:10464000809173014AE050E0BE016F5F7F4F90E0C0
:10465000B1D4F80101900020E9F7CF01019786530A
:104660009041DC01AA5CBF4E20E1E6EEF3E0019050
:104670000D922A95E1F7BE016F5F7F4F8A5B9F4ED7
:1046800063D4D8010D900020E9F711978AE0E2E8A1
:10469000F2E001900D928A95E1F74AE050E0BE0108
:1046A0006F5F7F4F809174019091750183D4F80101
:1046B00001900020E9F7CF01019786539041DC017A
:1046C000AA5CBF4E2CE1E7EFF3E001900D922A9532
:1046D000E1F7BE016F5F7F4F8F5A9F4E35D4D801EF
:1046E0000D900020E9F711978AE0E2E8F2E00190EE
:1046F0000D928A95E1F7809176014AE050E0BE0183
:104700006F5F7F4F90E056D4F80101900020E9F7E9
:10471000CF01019786539041DC01AA5CBF4E24E192
:10472000E3E1F4E001900D922A95E1F7BE016F5F9D
:104730007F4F865B9F4E08D4D8010D900020E9F78B
:1047400011978AE0E2E8F2E001900D928A95E1F794
:10475000809177014AE050E0BE016F5F7F4F90E0AB
:1047600029D4F80101900020E9F7CF010197865381
:104770009041DC01AA5CBF4E22E1E8E2F4E0019046
:104780000D922A95E1F7BE016F5F7F4F885B9F4EC8
:10479000DBD3F80101900020E9F7CF0101978653A0
:1047A0009041DC01AA5CBF4E29E0E2E8F2E0019012
:1047B0000D922A95E1F7DC01A15CBF4E2EE0EBE300
:1047C000F4E001900D922A95E1F768E771E0835BD0
:1047D0009F4EBAD3D8010D900020E9F711978AE0D7
:1047E000E2E8F2E001900D928A95E1F7C801A09607
:1047F0000FB6F894DEBF0FBECDBFDF91CF911F91F2
:104800000F910895CF93DF93EC014FDDBC01CE01F2
:10481000DF91CF9199C31F93CF93DF93EB0188234F
:1048200021F0DF91CF911F9108950E949D1B81116E
:1048300009C08091230D813039F11882DF91CF9129
:104840001F9108950E94031B182F8D30A9F080EE50
:10485000810F8F3570F7812F0E94F11A8091240DFE
:10486000E82FF0E0EB5DF24F10831092230D8F5F85
:104870008093240D1882E2CFE091240DF0E0EB5DEF
:10488000F24F10821092240D65E27DE0CE015CD3E0
:104890001092230DC6CFEF92FF921F93CF93DF9319
:1048A0001F92CDB7DEB77C01142F842F8D7F81300E
:1048B00011F1C701662361F00E94291B12501230CA
:1048C00060F00F90DF91CF911F91FF90EF900895CE
:1048D0000E940E1B12501230A0F780E594E00E9457
:1048E0000E1B86E892E00F90DF91CF911F91FF9011
:1048F000EF900C940E1B8AE494E069830E940E1BD7
:104900006981D7CFAA1BBB1B51E107C0AA1FBB1FE0
:10491000A617B70710F0A61BB70B881F991F5A954B
:10492000A9F780959095BC01CD01089597FB072EBE
:1049300016F4009406D077FD08D0E4DF07FC05D01C
:104940003EF4909581959F4F0895709561957F4FA6
:104950000895CF93DF938230910510F482E090E0C8
:10496000E0914712F091481220E030E0A0E0B0E082
:10497000309739F14081518148175907B8F04817ED
:10498000590771F482819381109729F013969C93B3
:104990008E9312972CC0909348128093471227C091
:1049A0002115310531F04217530718F0A901DB0139
:1049B00001C0EF019A01BD01DF010280F381E02D0A
:1049C000D7CF21153105F9F0281B390B24303105DB
:1049D00080F48A819B816115710521F0FB0193832D
:1049E000828304C09093481280934712FE0132964E
:1049F00044C0FE01E20FF31F8193919322503109CD
:104A0000398328833AC02091451230914612232BD6
:104A100041F420919E0130919F01309346122093E2
:104A2000451220919C0130919D012115310541F4E1
:104A30002DB73EB74091A0015091A101241B350B29
:104A4000E0914512F0914612E217F307A0F42E1BF5
:104A50003F0B2817390778F0AC014E5F5F4F2417E2
:104A6000350748F04E0F5F1F509346124093451292
:104A70008193919302C0E0E0F0E0CF01DF91CF910C
:104A80000895CF93DF93009709F487C0FC01329714
:104A900013821282C0914712D0914812209781F45C
:104AA00020813181280F391F809145129091461243
:104AB0008217930779F5F0934612E09345126DC083
:104AC000DE0120E030E0AE17BF0750F412964D91A2
:104AD0005C9113979D014115510509F1DA01F3CF5E
:104AE000B383A28340815181840F951F8A179B074E
:104AF00071F48D919C911197840F951F029691836B
:104B0000808312968D919C911397938382832115B4
:104B1000310529F4F0934812E09347123EC0D901C1
:104B20001396FC93EE9312974D915D91A40FB51FD0
:104B3000EA17FB0779F480819181840F951F029613
:104B4000D90111969C938E938281938113969C93A5
:104B50008E931297E0E0F0E08A819B81009719F034
:104B6000FE01EC01F9CFCE01029628813981820F36
:104B7000931F20914512309146122817390769F486
:104B8000309729F4109248121092471202C01382F3
:104B90001282D0934612C0934512DF91CF910895AF
:104BA0008F929F92AF92BF92CF92DF92EF92FF923D
:104BB000CF93DF93EC01688179818A819B816115B4
:104BC00071058105910521F464E279ED8BE597E0AB
:104BD0002DE133EF41E050E097D249015A019B01AA
:104BE000AC01A7EAB1E44FD26B017C01ACEEB4EFAB
:104BF000A501940154D2C60ED71EE81EF91EF7FE79
:104C000006C081E0C81AD108E10880E8F80AC88225
:104C1000D982EA82FB82C6019F77DF91CF91FF9014
:104C2000EF90DF90CF90BF90AF909F908F900895BE
:104C3000B7CF82EA91E0B4CFA0E0B0E08093A201C8
:104C40009093A301A093A401B093A50108952F927E
:104C50003F925F926F927F928F929F92AF92BF929C
:104C6000CF92DF92EF92FF920F931F93CF93DF9338
:104C70008B01EA016115710521F0DB018C9311961E
:104C80009C93209739F09E0122503109233231053F
:104C900008F0F8C07C016701BFEFCB1ADB0A5601B0
:104CA000F7016080862D90E020D1892B11F07601EC
:104CB000F2CFFDE26F120AC0570182E0A80EB11CCC
:104CC000D70111966C90772473940BC0BBE26B12E2
:104CD00007C05701E2E0AE0EB11CD70111966C90EF
:104CE000712CCE018F7E892B89F4B0E36B1222C028
:104CF000F50180818F7D883541F56180F2E0AF0E4E
:104D0000B11C872D8260782EC0E1D0E0C830D1057B
:104D1000F1F04CF4C230D10511F5C12CD12CE12CAD
:104D2000B0E4FB2E2EC0CA30D10531F0C031D10520
:104D300019F115C0209751F7CAE0D0E0ACECCA2EAB
:104D4000DC2CEC2CACE0FA2E1CC02097F9F6C8E065
:104D5000D0E0C12CD12CE12CF0E1FF2E12C060E09C
:104D600070E080E090E89E01442737FD4095542F85
:104D7000A9D169017A0105C0C12CD12CE12CE8E050
:104D8000FE2EF50160E020E030E0A9014E01AA24EA
:104D900097FCA094BA2C1F0170ED572E560CA9E079
:104DA000A51570F48FEB860D8A3118F499EC592E05
:104DB00006C08FE9860D8A3128F589EA582E560CEF
:104DC000852D90E08C179D07ECF467FD17C0C21687
:104DD000D306E406F50678F0C501B40164D19B0161
:104DE000AC01250D311D411D511D213031054105FD
:104DF000B0E85B0710F06FEF01C061E03196D101C0
:104E00006C90C9CF872D81700115110571F0662353
:104E100029F03197D801ED93FC9307C071FE19C0BA
:104E20003297D801ED93FC9314C067FF12C088231A
:104E300029F020E030E040E050E804C02FEF3FEFE1
:104E40004FEF5FE782E290E090934A12809349121D
:104E500016C0882341F050954095309521953F4FDD
:104E60004F4F5F4F0CC057FF0AC082E290E0909313
:104E70004A12809349122FEF3FEF4FEF5FE7B901DE
:104E8000CA0104C060E070E080E090E0DF91CF9163
:104E90001F910F91FF90EF90DF90CF90BF90AF9058
:104EA0009F908F907F906F905F903F902F9008958C
:104EB000FC0188279927E89421912032E9F32930D1
:104EC00010F02E30C8F32B3239F02D3231F46894C3
:104ED00003C068D0820F911D219120532A30C8F35E
:104EE0001EF4909581959F4F08959111B9C080321D
:104EF00019F089508550D0F70895FB01DC010D9021
:104F00000020E9F7119705900D920020E1F7089530
:104F1000FB01DC0105900D920020E1F7089549E2C4
:104F200050E119C0FB01DC0102C001900D9241501B
:104F30005040D8F70895FB01DC018D910190801954
:104F40000110D9F3990B0895FB01DC0101900D923A
:104F50000020E1F70895FA01A191B081009719F4BA
:104F60001097E1F0CD01DC01CD010D90002011F48E
:104F7000C00113C0FB012191222319F02015D9F79C
:104F8000F3CFFB012191201519F41E92119606C052
:104F90002223C1F70D900020A1F7D001FA01A193BF
:104FA000B08308957AE0979F902D879F802D910D73
:104FB00011240895FB019F0142306CF045325CF4EE
:104FC000642F77279FDC805D8A330CF0895D8193A5
:104FD000CB010097A9F71082C90145C0DC01CB01C4
:104FE000FC01F999FECF06C0F2BDE1BDF89A3196F9
:104FF00000B40D9241505040B8F70895F999FECF92
:1050000092BD81BDF89A992780B50895A8E1B0E0D6
:1050100042E050E0E5CFDC01A40FB51F4150504005
:1050200040F0CB01840F951F2E9105D04150504088
:10503000D8F70895262FF999FECF92BD81BDF89A31
:10504000019700B4021639F01FBA20BD0FB6F894CC
:10505000FA9AF99A0FBE08950196272FECDFEACF4E
:10506000992788270895DC01FC01672F7191772328
:10507000E1F7329704C07C916D9370836291AE1713
:10508000BF07C8F308955CD0A59F900DB49F900D05
:10509000A49F800D911D11240895B7FFF4CFF3DF75
:1050A000821B930B0895DB018F939F93ECDFBF91DD
:1050B000AF91A29F800D911DA39F900DB29F900D67
:1050C00011240895A1E21A2EAA1BBB1BFD010DC0DD
:1050D000AA1FBB1FEE1FFF1FA217B307E407F507A8
:1050E00020F0A21BB30BE40BF50B661F771F881F84
:1050F000991F1A9469F760957095809590959B011A
:10510000AC01BD01CF010895052E97FB16F4009464
:105110000FD057FD05D0D6DF07FC02D046F408C0FB
:1051200050954095309521953F4F4F4F5F4F0895D3
:1051300090958095709561957F4F8F4F9F4F089503
:10514000A29FB001B39FC001A39F700D811D1124C8
:10515000911DB29F700D811D1124911D0895F89429
:02516000FFCF7F
:10516200980B064A0DE90B076D0DBF0A02A50CD775
:105172000B04800CDE0A030A0DDF0B05E50CB70BEE
:1051820012510E220C13AE0FC70B0E300F320C0F42
:10519200860FFD0A086A0E000C098D0E3B0B0AAC45
:1051A2000EF50B0BCF0E5A0B0CEE0E140C0D110F4D
:1051B200AF0A104B0F1C0B148C0D0C0C15D90D796A
:1051C2000B16000EB004200320030126260612044B
:1051D2008C2602002901000161646D696E000000E5
:1051E20000000000000000000000000000000000BD
:1051F2000000000000000000A601AB0100004B12FD
:1052020020000100000075736572004561737952D8
:10521200696465720040003E2000526573657474D3
:10522200696E672E2E2E2E0053656E736573207580
:105232007064617465642E0064736300617374004A
:1052420069730062730061630061740061746300DA
:10525200616D696E7400616D6178740062700062E4
:10526200707400737300617300557064617465201B
:105272007375636365737366756C2C205245534571
:1052820054207468652064657669636520746F20B4
:10529200757365206E65772076616C756573210084
:1052A200436F6E66696775726174696F6E206F70A5
:1052B20074696F6E73206572726F72212055736507
:1052C2002073657420636F6E66205B616262726533
:1052D20076696174696F6E5D205B76616C75655D80
:1052E2002E001B5B31421B5B324B0D003100300044
:1052F20068656C700072657365740073686F7720FF
:1053020076657273696F6E0073686F77207374616C
:1053120074650073686F7720636F6E660073686FE1
:105322007720766F6C7461676500736574206473AF
:10533200656E73650073657420636F6E66007374C7
:105342003A200064733A20006473733A0062617415
:10535200746572793A20006465657020736C6565C6
:105362007020636F756E7465722028647363293AC6
:105372002000736574746C652074696D65202873F0
:1053820074293A2000616C61726D20736574746CCB
:10539200652074696D652028617374293A2000695B
:1053A2006E64696361746F7220736F756E64202816
:1053B2006973293A2000626C696E6B2073706565AF
:1053C2006420286273293A2000616C61726D206347
:1053D2006F756E74657220286163293A2000616CD2
:1053E20061726D2074726967676572202861742921
:1053F2003A2000616C61726D207472696767657230
:105402002028617463293A2000616C61726D206DFD
:10541200696E2E207468726573686F6C64202861EF
:105422006D696E74293A2000616C61726D206D6144
:10543200782E7468726573686F6C642028616D6180
:105442007874293A20006261636B706564616C2034
:10545200286270293A20006261636B706564616C36
:10546200207468726573686F6C6420286270742996
:105472003A20007374617274757020736F756E6474
:1054820020287373293A2000616C61726D20736F5A
:10549200756E6420286173293A20007061737377F6
:1054A2006F7264202870293A20001B5B324A0D007B
:0654B2001B5B314200000B
:00000001FF
